:020000040800F2
:1000000060070020CD010008A5040008390400089D
:10001000A104000819030008BF090008000000003F
:10002000000000000000000000000000250600089D
:100030001D030008000000002D0500083907000816
:10004000E7010008E7010008E7010008E7010008F0
:10005000E7010008E7010008E7010008E7010008E0
:10006000E7010008E7010008E7010008E7010008D0
:10007000E7010008E7010008E7010008E7010008C0
:10008000E7010008E7010008E7010008E7010008B0
:10009000E7010008E7010008E7010008E7010008A0
:1000A000E7010008E7010008E7010008E701000890
:1000B000E7010008E7010008E7010008E701000880
:1000C000E7010008E7010008E7010008E701000870
:1000D000E70100089D070008E7010008E7010008A4
:1000E000E7010008E7010008E7010008E701000850
:1000F000E7010008E7010008E7010008E701000840
:10010000E7010008E7010008E7010008E70100082F
:10011000E7010008E7010008E7010008E70100081F
:10012000E7010008E7010008E7010008E70100080F
:1001300000F002F800F03AF80AA090E8000C8244BF
:100140008344AAF10107DA4501D100F02FF8AFF29C
:10015000090EBAE80F0013F0010F18BFFB1A43F0A5
:1001600001031847640A0000840A0000103A24BF03
:1001700078C878C1FAD8520724BF30C830C144BF0C
:1001800004680C607047000000230024002500264E
:10019000103A28BF78C1FBD8520728BF30C148BFEA
:1001A0000B6070471FB51FBD10B510BD00F06EF895
:1001B0001146FFF7F7FF00F05DFC00F0A0F803B474
:1001C000FFF7F2FF03BC00F0FCFB0000094880478A
:1001D00009480047FEE7FEE7FEE7FEE7FEE7FEE729
:1001E000FEE7FEE7FEE7FEE704480549054A064B41
:1001F000704700003D070008310100086001002041
:1002000060070020600300206003002070470000AA
:100210000FB4044910B503AA029800F009F810BC05
:100220005DF814FB2C000020704770477047704742
:10023000074B70B50D467B4400F011F80446284684
:1002400000F020F810B14FF0FF3070BD204670BDB7
:100250001F08000001694A1C02610878704700B558
:100260008FB0CDE901310021059105497944CDE9EF
:1002700003101146684600F02EF80FB000BD0000D4
:10028000E5FFFFFF007B00F080007047754600F03F
:100290003FF8AE4605006946534620F00700854604
:1002A00018B020B5FFF7A0FFBDE820404FF00006D2
:1002B0004FF000074FF000084FF0000B21F007014E
:1002C000AC46ACE8C009ACE8C009ACE8C009ACE891
:1002D000C0098D4670472DE9F04106460024D6E955
:1002E0000170F5688046304603E04146B847641C1B
:1002F0003046A8470028F8D12046BDE8F08110B567
:100300000446AFF300802046BDE81040FFF757BF1A
:1003100000487047FC00002000BFFEE770472DE951
:10032000F04102460025002600200023002400277B
:1003300091F803C00CF00F0591F803C00CF0100CFD
:10034000BCF1000F03D091F802C04CEA050591F80A
:1003500000C0BCF1000F31D0146800202BE04FF03A
:10036000010C0CFA00F3B1F800C00CEA03069E423F
:1003700020D183004FF00F0C0CFA03F7BC4305FAB1
:1003800003FC4CEA040491F803C0BCF1280F06D129
:100390004FF0010C0CFA00FCC2F814C00AE091F80E
:1003A00003C0BCF1480F05D14FF0010C0CFA00FC62
:1003B000C2F810C0401C0828D1D31460B1F800C0A6
:1003C000BCF1FF0F34DD546800202EE000F1080C72
:1003D0004FF0010808FA0CF3B1F800C00CEA03066C
:1003E0009E4221D183004FF00F0C0CFA03F7BC435F
:1003F00005FA03FC4CEA040491F803C0BCF1280F91
:1004000005D100F1080C08FA0CF8C2F8148091F834
:1004100003C0BCF1480F07D100F1080C4FF00108F0
:1004200008FA0CF8C2F81080401C0828CED354609B
:10043000BDE8F0810161704700BFFEE708B501210A
:10044000202000F075F810208DF803000420ADF88E
:10045000000003208DF8020069460F48FFF75FFF98
:1004600004210D48FFF7E6FF0121042000F060F8A9
:1004700010208DF803000001ADF8000003208DF876
:10048000020069460548FFF74AFF4FF480710348B0
:10049000FFF7D0FF08BD0000001401400008014034
:1004A00000BFFEE77047000070B5002100230F2257
:1004B000C47804B3154C246804F4E064C4F5E06423
:1004C000210AC1F10403CA40447804FA03F1847894
:1004D0001440214309010E4C0678A155047804F01C
:1004E0001F050124AC4005786D11AD0005F1E02534
:1004F000C5F8004109E0047804F01F050124AC4070
:10050000044D0678761145F8264070BD0CED00E0EC
:1005100000E400E080E100E002490143024A11608A
:10052000704700000000FA050CED00E07047000085
:1005300029B1064A92690243044B9A6104E0034AD6
:1005400092698243014B9A6170470000001002409B
:1005500030B500210022002400232D4D6D6805F0E8
:100560000C0121B1042905D0082923D105E0294D2A
:10057000056022E0274D05601FE0254D6D6805F4FC
:100580007012234D6D6805F48034022505EB92420C
:100590001CB9214D554305600BE01D4D6D6805F4F8
:1005A00000351DB11C4D5543056002E0194D554302
:1005B000056002E0174D056000BF00BF144D6D6877
:1005C00005F0F0010909154D6B5C0568DD404560DB
:1005D0000F4D6D6805F4E061090A104D6B5C4568CC
:1005E000DD4085600A4D6D6805F46051C90A0B4D08
:1005F0006B5C4568DD40C560054D6D6805F44041A4
:10060000890B074D6B5CC568B5FBF3F5056130BD23
:100610000010024000127A0000093D001400002082
:1006200024000020704710B500F002F810BD000053
:100630000CB50020019000903348006840F48030F1
:100640003149086000BF3048006800F40030009075
:100650000198401C0190009818B90198B0F5A06F5E
:10066000F1D12948006800F4003010B10120009059
:1006700001E0002000900098012843D12348006841
:1006800040F01000214908600846006820F003008F
:1006900008600846006840F0020008601A48406898
:1006A000194948600846406848600846406840F478
:1006B000806048600846406820F47C104860084626
:1006C000406840F4E81048600846006840F08070D8
:1006D000086000BF0C48006800F000700028F9D0E6
:1006E0000948406820F00300074948600846406810
:1006F00040F00200486000BF0348406800F00C0072
:100700000828F9D10CBD0000001002400020024072
:10071000042808D14FF0E021096941F004014FF0AD
:10072000E022116107E04FF0E021096921F00401A6
:100730004FF0E022116170477047000010B5134878
:10074000006840F0010011490860084640681049FF
:1007500008400E494860084600680E4908400B49A9
:1007600008600846006820F4802008600846406859
:1007700020F4FE0048604FF41F008860FFF753FF2D
:100780004FF000600449086010BD000000100240F6
:100790000000FFF8FFFFF6FE08ED00E010B540F2A4
:1007A00025511D4800F04AF810B31B4800F002F92B
:1007B000C4B21A48008800F40040C8B9174800883D
:1007C00000F4804060B10A2C03D000201349088057
:1007D00020E01248008840F400401049088019E0E9
:1007E0000D2C06D10D48008840F480400B4908804C
:1007F00010E00A480088C0F30D0009490C5407486E
:100800000088401C0549088008460088C72801DD8B
:100810000020088010BD000000380140300000209A
:100820003400002021B1828942F40052828104E028
:1008300082894DF6FF731A408281704770B5024677
:10084000002400230025002040F66A16B14200D1A2
:1008500000BFC1F3421501F01F03012606FA03F39E
:10086000012D02D19689334006E0022D02D1168A6D
:10087000334001E0968A33400C12012606FA04F454
:100880001688344013B10CB1012000E0002070BD87
:10089000F0B50346002400260025002040F66A1724
:1008A000B94200D100BF1846C1F3421401F01F063F
:1008B000012707FA06F5012C01D10C3004E0022CC7
:1008C00001D1103000E014301AB107682F430760DF
:1008D00002E00768AF430760F0BD00002DE9F04774
:1008E00086B005460E460024A24600BFA14600275A
:1008F000B08900B100BF2F462C8A4CF6FF7004402F
:10090000F08804432C82AC894EF6F3100440B08882
:1009100031890843718908430443AC81AC8A4FF69E
:10092000FF400440B0890443AC8201A8FFF710FEE9
:100930001F48874202D1DDF810A001E0DDF80CA0CD
:10094000A88900F4004040B10AEBCA0000EB0A108D
:1009500031684900B0FBF1F807E00AEBCA0000EB90
:100960000A1031688900B0FBF1F86420B8FBF0F0A0
:1009700004012009642101FB1089A88900F40040CA
:1009800040B1322000EBC900B0FBF1F000F00700ED
:10099000044308E0322000EB09106421B0FBF1F0C1
:1009A00000F00F0004432C8106B0BDE8F087000082
:1009B0000038014001468888C0F30800704700BF36
:1009C000FEE700BF7047000010B56FF00400FFF7AE
:1009D0009FFE0A4800680A49B0FBF1F00949087017
:1009E0000846007800EB4001C1EBC0104FF6FF71E4
:1009F00001EAC0000449088010BD0000000000208A
:100A000000127A00280000202A0000200146114A26
:100A100012884A434FF0E0235A6100229A611A4635
:100A2000126942F001021A6100BF4FF0E022106922
:100A300000F001021AB100F48032002AF5D04FF024
:100A4000E022126922F001024FF0E0231A61002235
:100A50009A6170472A00002000BF054A128802F000
:100A60004002002AF9D0C2B2014B1B1D1A80704708
:100A700000380140002400250026FFF7A5FF4FF4B1
:100A8000A060FFF749FD4FF4165000F04DF8FFF756
:100A9000D5FC0020174908602AE01748008800F4B8
:100AA0000040F0B114480088C0F30D0513A0FFF713
:100AB000AFFB00240CE01548005D1549088000BF1D
:100AC0001348001F008800F040000028F8D0641C84
:100AD000AC42F0DB0FA0FFF79BFB0020064908802B
:100AE00006E0761C0DA0FFF793FB0A20FFF78EFFB0
:100AF000D3E70000A001214230000020C4FAB7A2D1
:100B0000CBCDB5C4CFFBCFA2CEAA3A003400002093
:100B1000043801400D0A0D0A00000000BFECB5E3E7
:100B2000CAE4C8EB0D0A000010B586B004460121E6
:100B300044F20400FFF7FCFC4FF40070ADF8140021
:100B400003208DF8160018208DF8170005A91C4801
:100B5000FFF7E5FB4FF48060ADF8140004208DF83A
:100B6000170005A91648FFF7DAFB25208DF80000CD
:100B700003208DF801008DF8020001208DF803009C
:100B80006846FFF791FC01940020ADF80800ADF82D
:100B90000A00ADF80C00ADF810000C20ADF80E0006
:100BA00001A90848FFF79AFE012240F225510548A5
:100BB000FFF76EFE01210348FFF734FE06B010BDBB
:100BC0000008014000380140E80B00080000002048
:100BD000340000006C0100081C0C000834000020E8
:100BE0002C0700008801000800A24A040000000051
:100BF00000000000010203040607080900000000CD
:100C0000010203040102030406070809020406089E
:0C0C1000000000000000000000000000D8
:0400000508000131BD
:00000001FF
